:020000022000DC
:1060000000000120B5620200DD620200819D0200F5
:10601000E1620200E3620200E562020000000000AB
:10602000000000000000000000000000E762020025
:10603000E962020000000000EB620200ED62020073
:10604000A5BB0200EF6202003DC402002DC50200A4
:1060500095D50200EF62020051BF0200F1D90200A3
:10606000EF620200EF620200EF620200EF620200E4
:10607000EF620200EF620200EF620200EF620200D4
:10608000EF62020095850200EF620200EF620200FB
:10609000EF620200EF62020099670300EF62020004
:1060A000EF620200EF620200EF620200EF620200A4
:1060B000EF620200EF62020000000000000000003A
:1060C000EF620200EF620200EF620200EF62020084
:1060D0003DC80300EF620200EF6202000000000012
:1060E00000000000000000000000000000000000B0
:1060F00000000000000000000000000000000000A0
:10610000000000000000000000000000000000008F
:10611000000000000000000000000000000000007F
:10612000000000000000000000000000000000006F
:10613000000000000000000000000000000000005F
:10614000000000000000000000000000000000004F
:10615000000000000000000000000000000000003F
:10616000000000000000000000000000000000002F
:10617000000000000000000000000000000000001F
:10618000000000000000000000000000000000000F
:1061900000000000000000000000000000000000FF
:1061A00000000000000000000000000000000000EF
:1061B00000000000000000000000000000000000DF
:1061C00000000000000000000000000000000000CF
:1061D00000000000000000000000000000000000BF
:1061E00000000000000000000000000000000000AF
:1061F000000000000000000000000000000000009F
:1062000010B5054C237833B9044B13B10448AFF3F0
:1062100000800123237010BDF03800200000000032
:10622000446A040008B5034B1BB103490348AFF3AC
:10623000008008BD00000000F4380020446A04001B
:10624000154B002B08BF134B9D46A3F5803A002148
:106250008B460F461348144A121A16F081FC0F4B56
:10626000002B00D098470E4B002B00D09847002001
:10627000002104000D000D48002802D00C48AFF3A7
:10628000008016F015FB2000290014F075FC16F0B4
:10629000FBFA00BF00000800000001200000000021
:1062A00000000000F0380020E85C00200000000042
:1062B000000000000649074A074B9B1A03DD043B18
:1062C000C858D050FBDC05F053F8FFF7B9FF0000C9
:1062D000B46C040000300020F0380020FEE7FEE738
:1062E000FEE7FEE7FEE7FEE7FEE7FEE7FEE7FEE786
:1062F000704700BF00B583B0044B0093044A4023AD
:1063000000F036F803B05DF804FB00BF156302002F
:106310001039002002B32DE9F843114B114E884685
:10632000144643F0010903270025224608EB050126
:10633000002008F05BFA03461D444FF47A40E41A4B
:1063400023B9337833B1C847013F06D001233370F6
:10635000002CEAD1BDE8F88370473770BDE8F883B8
:10636000902E04000C390020704700BF08F01CBBC1
:10637000F0B595B000241D460E460846174604F0B9
:10638000D1FE304623460822099505A91A9D089793
:106390000D950A948DF82C400C9404F027FF9DF87D
:1063A00014308DF81140DDE9061003F00302012AD4
:1063B000CDE9020128D0022A04D0304604F0B6FE0E
:1063C00015B0F0BDBDF81650C3F3C2038DF8103000
:1063D000C5F389150827082D2C4628BF08243B46FD
:1063E00022460EA9304604F001FF2D1B214608ABC2
:1063F00002AA0EA8274401F027F8002DEBD1304661
:1064000004F094FE15B0F0BDBDF81470059DC7F3FF
:106410008312C3F3C2040EA93046920008238DF8FC
:106420001040C7F3831704F0E1FEC5F3952508ABD0
:106430003A4628460EA9009302AB00F08DFF304685
:1064400004F074FE15B0F0BD08B5FFF78FFF0448E7
:10645000042100F0FDFE034B01225A7108BD00BF6C
:106460009C6C04000030002038B50C4B0C48002414
:1064700000250022C3E90045FF21C3F818249960D4
:1064800083F82024C3F8142404F0E2FD044610B974
:10649000044804F0F5FE204638BD00BF203A002035
:1064A0006C6B0400CC2E040099B10E4B0E495B1AA4
:1064B000DB0815D030B400220C4D02E001329342CB
:1064C0000BD035F822408442F8D151F8320030BC6C
:1064D0007047054951F830007047002030BC7047C4
:1064E000184670479C6C0400946B0400F038002040
:1064F000094B013903EBC00003290BD8DFE801F099
:106500000402080604207047022070474079704753
:106510000079704700207047946B04002DE9F04724
:10652000954CD4E900239A4284B063D00023C4F888
:106530001834BFF34F8FD4E9013503EA0501CA1CB3
:1065400004EB820614F82220500719D52768327808
:1065500002F00302012A43D0022A03D172880233D7
:1065600003EB921305EA0301D4F81804CA1C04EBE8
:10657000820628B99F4239D914F822205207E6D45E
:1065800004EB81015A1CC96801912A4004EB820284
:1065900001F00301D2680292022903F102062DD014
:1065A000012900F09580D4F810543DB12B6828469D
:1065B0009B689847EB681D68002DF7D16F48704BBA
:1065C0007049C01AC008000440F0020000F0E0F872
:1065D000D4E90030C01A18BF012004B0BDE8F0872C
:1065E00032880233C2F383121344BBE7676004B0FE
:1065F000BDE8F087002004B0BDE8F087BDF80630A4
:106600006148C3F38919B9F1500FC84628BF4FF04C
:10661000500868F38F1308F10801ADF8063004F054
:1066200019FD07460028BED004F07CFD0023082297
:1066300001A9384604F0A6FD25EA06030133B8EBAC
:10664000830F4FEA830A7DD9BAF1000F00F08D80E5
:1066500005EA06010331A8EB0A0804EB81010823CF
:10666000524638465FFA88F804F08CFD47494246A6
:106670000AF10803384604F085FD09F1030906EB29
:106680009906D4F81834002B6BD1D4F8105465B1A6
:10669000EB685A7928463946002A5ED02B681B6879
:1066A0009847EB681D68002DF2D1384604F03EFD96
:1066B00000230DF103008DF8033001F0DBFDD4F869
:1066C000183403B966609DF8030001F0F9FD7FE717
:1066D000BDF804302C48C3F38312062A28BF0622D3
:1066E000911C62F389138900ADF8043004F0B2FC08
:1066F000074600283FF457AF04F014FD002308229A
:1067000001A9384604F03EFDBDF8043013F4707F53
:10671000B7D04FF00008314629404FEA88030331D3
:10672000083304EB81010422384604F02BFDBDF848
:10673000043008F10108C3F38313434506F1010651
:10674000E9D89EE705EA0601033104EB81014246E0
:106750000823384604F016FD8FE71D68002D97D1F9
:10676000A3E7384604F0E2FC32E708494246082332
:10677000384604F007FD80E7203A0020D46B04007F
:10678000946B0400B42E04006C6B04002C3A0020BF
:106790002DE9F04F644C87B0002306460DF10B0045
:1067A0008DF80B30A568019101F064FDD4E9012357
:1067B00027681A440132D21B012A00F2858004F2B4
:1067C0001C4804F5836A04F214491BE0BDF80E303E
:1067D000C3F389130333090C0BEB930B4846009169
:1067E00003F098FC009900283ED04046C4F804B05D
:1067F00003F054FCD4E90113226819440131891AC9
:10680000012962D80121404603F048FC504603F0BC
:1068100071FC484603F06EFCD4E9013C03EA0C022B
:10682000D11C04EB810014F821E01EF0040F0EF0DF
:10683000040129D104EB8202591CD268039201EAB7
:106840000C0104EB810102F00302012AC96803F183
:10685000020B32D0022AB9D000214846009103F041
:1068600059FC00990028C0D14046C1E743880BEB92
:1068700093130CEA0302D11C04EB810014F82110DD
:1068800001F004010029D5D090F800E00EF0030ECD
:10689000BEF1010F0BD0BEF1020F03F1020B02F1AA
:1068A000030EE3D004EB8E000029EDD1C2E702888D
:1068B0000233C2F383121344DBE7BDF80C30C3F399
:1068C0008313090C9B4489E73A4613400333023291
:1068D00005219DF80B0044F82310226001F0F0FC24
:1068E0000021124803F094FB80F31000F1007B1CA0
:1068F0002B40019A01F038013D4004EB830341F045
:1069000001010004033540EA164641EA8221DE60B7
:1069100044F8251094F820341BB1FFF7FFFD002840
:10692000FBD107B0BDE8F08F203A00203C3E0020AC
:106930002DE9F04F684C89B0002307460DF1130094
:10694000CDE902128DF81330A56801F093FCD4E96B
:10695000012326681A440132921B022A00F2858024
:1069600004F21C4804F5836A04F214491BE0BDF8E4
:106970001630C3F389130333090C0BEB930B484612
:10698000019103F0C7FB019900283ED04046C4F8AE
:1069900004B003F083FBD4E90113226819440131E8
:1069A000891A022962D80121404603F077FB50463C
:1069B00003F0A0FB484603F09DFBD4E9013C03EA49
:1069C0000C02D11C04EB810014F821E01EF0040F2E
:1069D0000EF0040129D104EB8202591CD268059201
:1069E00001EA0C0104EB810102F00302012AC968EB
:1069F00003F1020B32D0022AB9D00021484601919E
:106A000003F088FB01990028C0D14046C1E74388C4
:106A10000BEB93130CEA0302D11C04EB810014F876
:106A2000211001F004010029D5D090F800E00EF00B
:106A3000030EBEF1010F0BD0BEF1020F03F1020BEA
:106A400002F1030EE3D004EB8E000029EDD1C2E782
:106A500002880233C2F383121344DBE7BDF814301B
:106A6000C3F38313090C9B4489E732461340033375
:106A7000033245219DF8130044F82310226001F0F1
:106A80001FFCB31C2B4004EB8303039A1348DA600A
:106A9000002103F0BDFA80F31000F900731C2B40B5
:106AA000029A01F03801354004EB830341F04101C3
:106AB0000004033540EA174741EA8221DF6044F8C9
:106AC000251094F820341BB1FFF728FD0028FBD1D6
:106AD00009B0BDE8F08F00BF203A00203C3E002006
:106AE0002DE9F04F6C4C89B0002607460DF11300DC
:106AF000CDE9011203938DF81360A56801F0BAFB8C
:106B0000D4E9012326681A440132921B032A00F2B9
:106B1000858004F21C4804F5836A04F214491BE0E2
:106B2000BDF81630C3F389130333090C0BEB930B39
:106B30004846009103F0EEFA009900283ED0404606
:106B4000C4F804B003F0AAFAD4E901132268194486
:106B50000131891A032962D80121404603F09EFAC7
:106B6000504603F0C7FA484603F0C4FAD4E9013CA2
:106B700003EA0C02D11C04EB810014F821E01EF0A2
:106B8000040F0EF0040129D104EB8202591CD268D3
:106B9000059201EA0C0104EB810102F00302012AD3
:106BA000C96803F1020B32D0022AB9D0002148464D
:106BB000009103F0AFFA00990028C0D14046C1E728
:106BC00043880BEB93130CEA0302D11C04EB810006
:106BD00014F8211001F004010029D5D090F800E04C
:106BE0000EF0030EBEF1010F0BD0BEF1020F03F148
:106BF000020B02F1030EE3D004EB8E000029EDD16D
:106C0000C2E702880233C2F383121344DBE7BDF804
:106C10001430C3F38313090C9B4489E732461340B5
:106C20000333043285219DF8130044F823102260B9
:106C300001F046FBB21C2A40F31C2B4004EB8202FD
:106C400004EB830C029BD3600021039B1348CCF818
:106C50000C3003F0DDF980F31000F900731C2B40B9
:106C6000019A01F03801354004EB830341F08101C2
:106C70000004033540EA174741EA8221DF6044F807
:106C8000251094F820341BB1FFF748FC0028FBD1F5
:106C900009B0BDE8F08F00BF203A00203C3E002044
:106CA0002DE9F04F6F4C89B0002607460DF1130017
:106CB000CDE9011203938DF81360A56801F0DAFAAB
:106CC000D4E9012326681A440132921B042A00F2F7
:106CD000858004F21C4804F5836A04F214491BE021
:106CE000BDF81630C3F389130333090C0BEB930B78
:106CF0004846009103F00EFA009900283ED0404625
:106D0000C4F804B003F0CAF9D4E9011322681944A5
:106D10000131891A042962D80121404603F0BEF9E5
:106D2000504603F0E7F9484603F0E4F9D4E9013CA2
:106D300003EA0C02D11C04EB810014F821E01EF0E0
:106D4000040F0EF0040129D104EB8202591CD26811
:106D5000059201EA0C0104EB810102F00302012A11
:106D6000C96803F1020B32D0022AB9D0002148468B
:106D7000009103F0CFF900990028C0D14046C1E747
:106D800043880BEB93130CEA0302D11C04EB810044
:106D900014F8211001F004010029D5D090F800E08A
:106DA0000EF0030EBEF1010F0BD0BEF1020F03F186
:106DB000020B02F1030EE3D004EB8E000029EDD1AB
:106DC000C2E702880233C2F383121344DBE7BDF843
:106DD0001430C3F38313090C9B4489E732461340F4
:106DE00003330532C5219DF8130044F823102260B7
:106DF00001F066FAB01C2840F21C331D2B402A40DB
:106E000004EB800004EB820204EB830C029BC36062
:106E1000039BD3600021129B1348CCF80C3003F085
:106E2000F7F880F31000F900731C2B40019A01F071
:106E30003801354004EB830341F0C1010004033500
:106E400040EA174741EA8221DF6044F8251094F8B0
:106E500020341BB1FFF762FB0028FBD109B0BDE86D
:106E6000F08F00BF203A00203C3E00202DE9F04F7B
:106E7000754C89B0002607460DF11300CDE90112CB
:106E800003938DF81360A56801F0F4F9D4E90123A8
:106E900026681A440132921B052A00F2858004F20A
:106EA0001C4804F5836A04F214491BE0BDF816304F
:106EB000C3F389130333090C0BEB930B4846009182
:106EC00003F028F9009900283ED04046C4F804B0E9
:106ED00003F0E4F8D4E90113226819440131891A56
:106EE000052962D80121404603F0D8F8504603F046
:106EF00001F9484603F0FEF8D4E9013C03EA0C022C
:106F0000D11C04EB810014F821E01EF0040F0EF0F8
:106F1000040129D104EB8202591CD268059201EACE
:106F20000C0104EB810102F00302012AC96803F19C
:106F3000020B32D0022AB9D000214846009103F05A
:106F4000E9F800990028C0D14046C1E743880BEB1F
:106F500093130CEA0302D11C04EB810014F82110F6
:106F600001F004010029D5D090F800E00EF0030EE6
:106F7000BEF1010F0BD0BEF1020F03F1020B02F1C3
:106F8000030EE3D004EB8E000029EDD1C2E70288A6
:106F90000233C2F383121344DBE7BDF81430C3F3AA
:106FA0008313090C9B4489E73246134003330632AE
:106FB00040F205119DF8130044F82310226001F0FF
:106FC0007FF9B11C06F1030C29400CEA050C321DB7
:106FD000731D2B402A4004EB810104EB8C0C0298BA
:106FE000C86004EB820204EB830E039BCCF80C30E8
:106FF000129BD3600021139B1448CEF80C3003F091
:1070000007F880F31000F90001F03801731C2B40E1
:10701000019A41F48071354004EB830341F0010192
:107020000004033540EA174741EA8221DF6044F853
:10703000251094F820341BB1FFF770FA0028FBD11B
:1070400009B0BDE8F08F00BF203A00203C3E002090
:107050002DE9F04F8FB01F467A4C0392CDE90927F6
:10706000199A189E0C9200231A9A0B9680460DF1DD
:1070700017000D928DF81730A568029101F0FAF80B
:10708000D4E9012326681A440132921B062A00F231
:10709000838004F21C4904F2144A1BE0BDF81A3044
:1070A000C3F389130333090C0BEB930B5046019187
:1070B00003F030F8019900283ED04846C4F804B0E7
:1070C00002F0ECFFD4E90113226819440131891A56
:1070D000062962D80121484602F0E0FF5A4803F031
:1070E00009F8504603F006F8D4E9013C03EA0C0223
:1070F000D11C04EB810014F821E01EF0040F0EF007
:10710000040129D104EB8202591CD268069201EADB
:107110000C0104EB810102F00302012AC96803F1AA
:10712000020B32D0022AB9D000215046019102F060
:10713000F1FF01990028C0D14846C1E743880BEB15
:1071400093130CEA0302D11C04EB810014F8211004
:1071500001F004010029D5D090F800E00EF0030EF4
:10716000BEF1010F0BD0BEF1020F03F1020B02F1D1
:10717000030EE3D004EB8E000029EDD1C2E70288B4
:107180000233C2F383121344DBE7BDF81830C3F3B4
:107190008313090C9B4489E73246134003330732BB
:1071A00040F245119DF8170044F82310226001F0C9
:1071B00087F8B11C2940F01C06F1040CB31D2B40CC
:1071C00028400CEA050C04EB8101721D04EB830ED0
:1071D0002A40039BCB6004EB800004EB8C0C189BD3
:1071E000C76004EB8202CCF80C30199BD3600021FD
:1071F0001A9B1648CEF80C3002F00AFF80F31000FC
:107200004FEAC80101F03801731C2B40029A41F487
:10721000A071354004EB830341F001010004033504
:1072200040EA184041EA8221D86044F8251094F8D9
:1072300020341BB1FFF772F90028FBD10FB0BDE875
:10724000F08F00BF203A0020383E00203C3E002056
:1072500030B4154DD5F810140446002071B10B461A
:1072600001E01B6853B1DB681A798242F9D1013021
:107270000A28F3D14FF0FF3030BC7047E368187133
:10728000D5F810344BB1DA68E36812681A60D5F8A3
:107290001034DB681C6030BC7047C5F81044E268ED
:1072A000136030BC704700BF203A002038B5094B4E
:1072B000D3F81044012583F820544CB1E3685D7184
:1072C000236820465B689847E3681C68002CF5D16A
:1072D00038BD00BF203A002030B5C38885B00446D1
:1072E0000D461BBB217A05291ED0627A82B9134A4A
:1072F000A08852F8212003920021FFF7D5F8039AC5
:107300000F490346284605B0BDE8304002F07EBF75
:10731000A088FFF7EDF80B4B0B4953F820202846C7
:1073200002F074FF217AE2E705B030BD074A00920F
:107330000749084A284602F069FFD3E7942F040062
:10734000002F0400702F0400EC500400F82E0400FD
:10735000E02E0400D82E04002DE9F04385B04FF054
:10736000000C0C9C814694F80C8084F80CC00E46EE
:107370001746184621461D46FFF7AEFF062F09D8CF
:10738000DFE807F0042E343B444F1F0049462046F7
:1073900002F03CFF2B7A052B05D06B7A5BB92749AD
:1073A000204602F033FF204602F024FF84F80C80D0
:1073B00005B0BDE8F083224A2249204602F026FFAC
:1073C000EDE7D6E90413F2680393B3680291CDE9BF
:1073D00000324946D6E90023204602F017FFD9E7DC
:1073E00032684946204602F011FFD3E7D6E9002370
:1073F0004946204602F00AFFCCE7B3680093D6E97D
:1074000000234946204602F001FFC3E7D6E90232D5
:1074100001920093D6E900234946204602F0F6FE89
:10742000B8E7D6E90321B3680291CDE900324946B5
:10743000D6E90023204602F0E9FEABE7C461040070
:10744000F82E0400EC500400082900D970472DE9FB
:10745000F04F9B4683B000241B7B8BF80C400D46FD
:1074600006465946104690460193DFF8D0902C4FBF
:10747000FFF732FF05E0325D013402F0C7FE082C51
:1074800009D0A54239465846F5D84946013402F09C
:10749000BDFE082CF5D12349DFF8A490224C234FE0
:1074A000584602F0B3FE4FF0000A0DE0D15D11F036
:1074B000970F08BF2E22214658460AF1010A02F012
:1074C000A5FEBAF1080F10D0554505D916F80A20C7
:1074D0007E2AEBD92E22EEE7494658460AF1010AE8
:1074E00002F094FEBAF1080FEED198F80830052B9F
:1074F00002D098F8093063B90D49584602F086FE6B
:10750000584602F077FE019B8BF80C3003B0BDE8C3
:10751000F08F084A0849584602F078FEECE700BFB1
:107520000C2F0400182F04001C2F04009B63040080
:10753000C4610400F82E0400EC500400142F040071
:10754000082F040038B5174B1D783DB3164B19684A
:10755000C0B200230C4604E00133AB4204F108043E
:107560001CD011F833209042F6D104F0E7FC637888
:10757000A3F10103B3FA83F35B09834200D038BD62
:107580000A4BD3E900231343F9D1094B0948196881
:107590000022BDE83840490800F08CBC00231B786D
:1075A000FFDE00BFDC3E0020203F0020083F00201F
:1075B000E03E0020E83E00202DE9F04FDFF8548245
:1075C00098F8003083B0002B00F01981DFF8489262
:1075D0008C4F8D4E00254FF0010A3C6814F83500A1
:1075E00004F0ACFC04EBC50314F835405B784FEABB
:1075F000540C14F0010E16F80C10A3F10103B3FAA9
:1076000083F314BF0A0901F00F025B09042A00F298
:10761000A080DFE802F0725D32200300834240F078
:10762000AB80BEF1000F0CBFF0230F2303EA010370
:107630000CBF03213021194306F80C1098F80020E4
:1076400001359542C9DBD9E90023134340F0CD80D1
:1076500003B0BDE8F08F83427BD0BEF1000F0CBFBA
:10766000F0230F2303EA01030CBF04214021194337
:1076700006F80C1098F80020E2E783426CD1BEF1C6
:10768000000F0CBFF0230F2303EA010398F800203A
:107690000CBF03213021194306F80C10002AD2D068
:1076A000D7F800C00023614603E0934201F10801CE
:1076B000C6D01CF83300A04203F10103F5D14B689A
:1076C000002BBDD020460121984798F80020B7E74D
:1076D000834219BF0020034602232020BEF1000F81
:1076E0000CBFF0220F2201EA020118BF03460B4330
:1076F00006F80C3098F80020A2E7834229D1BEF1A9
:10770000000F14BF0F23F02303EA010314BF10215D
:10771000012119430DF107004FF0000306F80C108A
:107720008DF8073000F0A6FDD9E90032A4F1200160
:10773000C4F120000AFA01F12AFA00F001430AFA22
:1077400004F4114323439DF80700C9E9003100F018
:10775000B7FD98F8002073E7BEF1000F0CBFF023CF
:107760000F2303EA01030CBF01211021194306F87E
:107770000C1098F8002063E7BEF1000F14BF0F2330
:10778000F02398F80000194006F80C1098B1D7F8CB
:1077900000C00023624603E0834202F108020AD0DF
:1077A0001CF83310A14203F10103F5D1536813B162
:1077B0000021204698474FF000030DF107008DF897
:1077C000073000F057FDD9E90032A4F12001C4F1DF
:1077D00020000AFA01F12AFA00F001430AFA04F43F
:1077E00022EA010123EA0403ADE7084B08481968BF
:1077F0000022490800F05EFB03B0BDE8F08FDFF81F
:10780000189020E7203F0020103F0020E03E00209D
:10781000E83E0020DC3E0020083F0020092A43D932
:107820002DE9F04182B0144606460D4604F03AFABE
:10783000002832D0214A2249224B16600D7022487E
:107840001C600021102215F08BF9204B0020002134
:107850006C1EC3E90001E4B245B3DFF87C8006EB9F
:10786000C404032702E0A64220D01C469DF806303F
:10787000A57820788DF8047023F00703424601A90B
:107880008DF806308DF8055004F016FAA4F10803BF
:107890000028E8D002B0BDE8F08104F0B9F9002872
:1078A000C8D002B0BDE8F08107207047084A0948F7
:1078B000002100F0F1FA02B0BDE8F081203F002085
:1078C000DC3E0020E03E0020103F0020083F00206A
:1078D000B9750200B42F04004575020070B5084D5B
:1078E0002B785BB1074E00243368012113F8340074
:1078F00004F0C6FA2B780134A342F5D8002070BDFD
:10790000DC3E0020203F002030B482B001248DF8FE
:107910000740144B9DF80750186044F20104A04240
:1079200059609A6013D044F20201884206D1DA60AD
:10793000DA6812889A61DA685268DA6172B69DF87C
:107940000730002BFBD162B602B030BC70471A6121
:107950001A6992685A611A6912689A611A695268BA
:10796000DA61EBE7243F002000B583B0029000917C
:10797000019244F2010071466A4600F003F803B038
:1079800000BD00BFF0B5044687B00E46154672B67E
:10799000FFF78CFCFEF7C2FD0028FBD144F2010387
:1079A0009C423ED010D8012C37D041F201039C42BA
:1079B00027D12A482A4B2B49C01AC008000440F09E
:1079C0000100FEF7E5FE0FE044F202039C4218D1ED
:1079D0002248234F2B886A682349C01BC008000433
:1079E00040F00100FFF77CF8204B1B68DB0700D557
:1079F00000BE2A463146204607B0BDE8F040FFF7FA
:107A000083BF174B15481A49C01AC008000440F03C
:107A100001003246FEF78CFFE6E71048104B15498F
:107A2000CAE7AA680E4B0D4F05921046FF1A03F0E5
:107A300077FC2968059ACDE90116FF083F046968BB
:107A4000009147F0010703460B493846FFF700FB5A
:107A50000A493846FEF79CFEC6E700BFD46B040017
:107A6000946B0400D82F0400FC2F0400F0ED00E01C
:107A700054300400B82F04001830040040300400D3
:107A800059B142B1531E1A4005D182600160838012
:107A9000C26010467047092070470E20704700BF33
:107AA00010B48468C26803468088121B904203D2D7
:107AB00004205DF8044B7047DA681C68024000201F
:107AC000A154DA680132DA605DF8044B704700BFF8
:107AD00003468068DA6890420DD010B498689A889E
:107AE0001C6802400020A25C0A709A6801329A6009
:107AF0005DF8044B70470520704700BFD0E90223B2
:107B0000D1E90201994208BF90422CBF0120002018
:107B1000704700BF2DE9F04F2DED028B85B0064672
:107B200000F0F8FC40B1B54AD2E9003113F180739E
:107B300041F10001C2E900310021304600F006FDAC
:107B4000AF4C60B1236853B1AE4B25681B7823B1AD
:107B50001DB12B7F002B40F01C81002323600121ED
:107B6000304600F0F3FC002840F0F680A64803A958
:107B700002F098F978B3A54DDFF88882A24F0BE0A8
:107B8000002B00F0CD8003A9384602F0BBF903A911
:107B9000384602F087F9F0B10378012B12D0022B9E
:107BA000EED128464FF0000903F0A2FB30B180F877
:107BB0001C90284603F09CFB0028F8D1012388F88C
:107BC0000030E0E741682368994200F0BA80284617
:107BD00003F098FBD7E7DFF834828D4FDFF81C9273
:107BE00008EE106A37E0404603F082FB054638464F
:107BF000AB68EA680193009200F0B8FC854E8446B9
:107C0000D9E90001D6E9002310EB0C0041F1000195
:107C1000994208BF9042DDE9002303D210F1807041
:107C200041F10001B3EB000A62EB010BBAF1010F65
:107C30007BF1000329DBBAF5350F6BD2AA684FF44C
:107C400096030021384600F0DFFB00285AD00D28AB
:107C50001FD000232360404603F050FB002873D060
:107C60002368002BBFD02368D0E90201D3E90223A7
:107C7000994208BF904248D223681B7F002BB2D0A4
:107C80002168404603F020FBADE70021384600F0B4
:107C900051FC5C4B1B78002BDBD02B7F002BD8D00A
:107CA000384600F063FC8446D9E90001D6E9002398
:107CB00010EB0C0041F10001994208BF904203D241
:107CC00010F1807041F10001D5E90223994208BF0B
:107CD000904259D32B6903B92B77D5E905309847E2
:107CE00029690029B5D02B7F002BB2D0D5E902231A
:107CF000521843F10003C5E902232946404603F028
:107D0000E3FAA6E72368BBB1256005B0BDEC028BA2
:107D1000BDE8F08F384600F029FC3F4A02448EE768
:107D200043681A7F002A7FF42EAF01221A77416838
:107D3000284603F0C9FA26E718EE100A00F036FBD1
:107D4000E2E7002323601EE72368002BDDD118EE55
:107D5000100A00F02FFBD8E72D482E4D00F006FC4E
:107D6000264BD3E90089D5E9002318EB000849F137
:107D70000009994508BF904503D218F1807849F170
:107D80000009C5E90089F1E62946404603F09CFA5E
:107D90005FE71F4800F0EAFB184A1E4BD2E9008952
:107DA000D3E9002318EB000849F10009994508BF01
:107DB000904503D218F1807849F10009D5E90223F2
:107DC000994508BF904529D32B6903B92B77D5E98D
:107DD00005309847296900293FF4BFAE2B7F002B5F
:107DE0003FF4BBAED5E90223521843F10003C5E9C5
:107DF00002230648294603F067FAAEE6483F002012
:107E0000C83F0020503F0020AC3F00207C300400E1
:107E100008300020C03F0020FFFFB4000248294680
:107E200003F052FA99E600BF7C30040010B5134B02
:107E300013491B68134882B058220193082301F0AC
:107E4000B9FF044610B1204602B010BD0E4A0F48DB
:107E500001A900F04DFA04460028F4D10B48012195
:107E600000F04EFB01231946094A084800F0A6FA23
:107E7000084B012220461A7002B010BD7830040071
:107E8000543F0020AC3F0020157B0200083000204A
:107E9000FFFF7F00503F00204AB1A1F101010368BC
:107EA000B1FA81F14909C3E90412002070470720A3
:107EB000704700BF037F0BB100207047F0B58261AF
:107EC00083B004461A480D4600F050FB194B1A497E
:107ED000D3E90023D1E90067121843F10003BB4244
:107EE00008BFB24203D212F1807243F1000352196B
:107EF000216943F10003C4E9022301B125610F4860
:107F000001A901F091FF48B100254460057001A965
:107F10000A4801F0B7FF20B903B0F0BD042003B058
:107F2000F0BD034800F026FB284603B0F0BD00BFBB
:107F300008300020483F0020C03F0020AC3F002018
:107F400030B5002583B00446057701A90B4801F040
:107F50006BFF78B101224460027001A9074801F06B
:107F600091FF08B903B030BD054800F003FB284677
:107F700003B030BD042003B030BD00BFAC3F0020D3
:107F80000830002030B50478012C83B004D0022CD6
:107F90002DD0ECB103B030BD037A002B3CD0436848
:107FA000364D19782846FFF77BFD002854D0344B16
:107FB00001901B688DF8004068469847A968EB68F7
:107FC000AA885B1A9A4227D22E4B01221A70E1E747
:107FD0002D492E48FFF77CFD00282ED0284B032288
:107FE0001B688DF800206846984703B030BD284BC9
:107FF000284D1A78C168AA5C01918DF80040B2B989
:10800000254903F10C00012204F082FF1C4B684655
:108010001B68984703B030BD1D4B1E4A1B781E4994
:10802000D35C0122A3B11D4805F01CFAB2E71A493E
:10803000181D012205F016FAE8E71548154A0378DD
:10804000D35CA3B110490122043005F0A3F9A1E7E4
:10805000134804F05DFF9DE7AA68EB689A42ADD033
:10806000074B8DF800001B6868469847A6E706494D
:1080700001220C3004F0D8FE8CE700BFD03F002076
:10808000CC3F0020E03F0020F83F0020E43F0020EC
:1080900010300020785A0020F43F002014300020D7
:1080A0001C3000202DE9F041334D8AB02A600029B0
:1080B00056D08A8880460D46304809681C46FFF72E
:1080C000DFFC10B10AB0BDE8F081AA89A9682C488C
:1080D000FFF7D6FC0028F5D12A4E98F810C02A4F99
:1080E0000FCE02AD0FC596E80F0098F81160BCF1F5
:1080F000000C85E80F0018BF4FF0010CD8F80430D1
:108100000193002ED8F81430D8F808508DF8244088
:1081100014BF0E220022D8F80C40D8F800608DF869
:108120001D200893194A019B8DF81CC002A93846EE
:10813000CDE904450396029303F06CFC0028C1D1FD
:10814000D8F80030124A01331070BBD0114A3B7886
:10815000D35C4BB11049381D012205F083F9B1E71A
:1081600007200AB0BDE8F0810B4907F10C0001229D
:1081700004F0CEFEA6E700BFCC3F0020D03F002099
:10818000E43F0020D430040010300020857F02003E
:10819000E03F0020785A0020F43F002070B5124DD7
:1081A000014612482E78FFF793FC04460EB920468C
:1081B00070BD0F480F4A0378D35C00222A7063B168
:1081C0000D490430012205F04DF90028EFD00B4A8B
:1081D000D621FFF7C9FB204670BD074901220C30AC
:1081E00004F096FEF1E700BFE03F0020D03F002002
:1081F00010300020785A0020F43F0020883004001E
:1082000070B501461548FFF74BFC044608B12046FF
:1082100070BD134D134E2B78F35CA3B1281D05F0F0
:1082200013F90028F3D110490C48FFF751FC00283E
:10823000EDD12B780C49F35C01224BB1BDE87040C5
:108240000A4805F0A7B805F10C0004F055FEE8E770
:10825000BDE87040064804F0E7BD00BFE43F0020E1
:1082600010300020785A0020F83F00201430002001
:108270001C30002070B4EFF3108472B60D4B9A6876
:10828000AAB90D490D4E01259D60D1F880503540A9
:108290001D60C1F88060D1F884505D604FF0FF33FD
:1082A000C1F88430027004B962B670BC7047012313
:1082B0000370F8E76C5A002000E100E0FC06FFBD07
:1082C000094B9A687AB170B910B4EFF3108172B6A5
:1082D000064A1C6814605C685460986001B962B614
:1082E0005DF8044B704770476C5A002000E100E0D5
:1082F00070B5264C4379264E04EBC30546F823207F
:108300002D79002D35D103680A88C3F8082590F926
:1083100004308A78002B24DB03F1604303F56143CA
:108320005201D2B283F8002390F90420194E1A4B5F
:10833000012502F01F01520905FA01F146F8221049
:10834000164E4279164944F83200981B04EBC204D9
:10835000C008000440F003002571FEF719FA002060
:1083600070BD104903F00F0352011944D2B20A76CE
:10837000DAE70A4B08480C49C01AC008000440F06C
:108380000200FEF705FA082070BD00BFFC3F002088
:108390000440002000E100E0E46B0400946B040062
:1083A00018310400FCEC00E0F43004000368012202
:1083B0001A607047036801225A607047F0B404687D
:1083C0004FF480358D40C4F80853066801F150041D
:1083D000C6F84853A4000668A4B20027375182B0FB
:1083E00036590468019601F5A87122F07F42019E7A
:1083F00044F821200268C2F8445313B10368C3F85B
:10840000045302B0F0BC70472DE9F04704464FF426
:10841000803600688E40C0F848632068C0F8086362
:10842000206800EB81058A46D0F80415D5F8400590
:10843000C5F840150AF15005AD002768ADB24FF000
:10844000000847F8058082B0401A7F59009720F055
:108450007F40012822F07F479946009A41D0226848
:10846000D2F80455C2F844637A1B22F07F42012AF5
:108470000AF5A87125D0226842F821702068D0F84A
:1084800004557A1BC9F1FF13013A03F57F4322F02B
:108490007F42934211D342B1C0F844632368002065
:1084A000C3F8046302B0BDE8F087013740F82170DB
:1084B0002068D0F804359D42EED00D2002B0BDE812
:1084C000F08720680D4B013740F8217043F001031D
:1084D0004FF4806098472068D0F804359D42DBD087
:1084E000EBE7064A4FF4806042F0010290472268B1
:1084F00042F8058052590192019AB0E730310400E8
:1085000002680223C2F8443311B10268C2F804338E
:10851000704700BF0368D3F8040100B97047002218
:1085200082B0C3F80421D3F804310193019B0120E8
:1085300002B0704702684FF4803303FA01F1C2F8C9
:1085400048130368C3F80813704700BF503189000F
:10855000036889B2585800B9704700225A5082B057
:108560005B580193019B012002B070470368D3F868
:108570000405704790F9043005485A09012140323A
:1085800003F01F0301FA03F340F82230704700BFE5
:1085900000E100E0024A034B10681B68184700BF67
:1085A000FC3F0020044000200223F0B50B8000F5C2
:1085B00080550830002A33D02B4F4FF6FF764FF00E
:1085C000010C036801331FD0B0F802E00EF1030480
:1085D00000EB8404A5421DD38388B34215D00388E1
:1085E0009BB183685C1C10D03C689C4202D23B600B
:1085F000B0F802E00B88033373440B8043880333E5
:1086000000EB83008542DCD8F0BD82F800C0B0F8F2
:1086100002E0EFE7012313704FF480630B80F0BD9D
:10862000114E4FF6FF7403680133EDD04388DA1C16
:1086300000EB82029542EFD38288A24209D00288E1
:108640003AB18268571C04D03768BA4284BF32609E
:1086500043880A88033213440B804388033300EBBA
:1086600083008542DFD8F0BD40400020F0B543686C
:108670008C461BB1324AD468A3423CD20023314E0F
:10868000ACF8003073684FF0010E03F580544FF6DC
:10869000FF7708339C420ED8BEF1020FACF800E021
:1086A00006F114064AD0736803F5805408339C42DF
:1086B0004FF0020EF0D91A680132EDD05A88033219
:1086C00003EB82029442E7D39D88BD4209D01D8806
:1086D0003DB19D68691C04D00168A94205D01346CC
:1086E000D8E79442D8D91346E5E7174A436013897F
:1086F00003810120F0BD12699342BFD813F0030536
:10870000BCD1114A048912899442B7D104689A688D
:108710009442B3D10B484268934203D902F5805288
:10872000934207D38269934208D902F5805293425B
:1087300004D20125ACF800500120F0BD0020F0BDAE
:10874000DC380020484000202C4000202DE9F04F6C
:108750009C4E8BB004464FF6FF773568002D00F035
:10876000CB802A78531E052B00F29081DFE803F0BE
:108770005C2323030341002C40F0C5802B79012B9F
:1087800000F0C082022B00F0DA80002B00F0928211
:108790000DF11408C8E902440594C8F8104048F2E5
:1087A0000E6406942B78013B052B4DD8DFE803F0CF
:1087B000756685799949B5F814A0002C40F054826B
:1087C000DFF82082A97D0AEB8A0308EB83034FEAD6
:1087D0008A091C895B6803EB8404062900F27B8408
:1087E000DFE811F02B021802FE01EB01CA01B00113
:1087F0009601002C40F08780DFF8ECC19CF80C302B
:10880000002B00F0C4809CF800308CF80C40013B39
:10881000062B00F23B81DFE813F01903F302240179
:108820000C013901DD02E900002C40F015822B79A2
:10883000032B00F29F80DFE813F05F017200540108
:10884000340105238DF814305F4C04F1100554F801
:10885000043B404603B19847A542F8D15B495C48C8
:108860000024346001F04EFB5A48012101F024FC41
:1088700000287FF472AF0BB0BDE8F08F01238DF8B4
:1088800014302B89ADF82030AB88ADF82230EB687E
:10889000079300238DF82430D6E700238DF8143099
:1088A000D2E703238DF81430EB88ADF820302B8904
:1088B000ADF82230EB680793C6E702238DF8143039
:1088C0002B89ADF82030AB88ADF82230EB680793E8
:1088D000AB7DA3F10603B3FA83F35B098DF8243073
:1088E000B2E704238DF81430EB88ADF82030002374
:1088F000ADF822300793A7E73449354801F0D2FAA2
:10890000054630602DE74FF406440DF114080023AE
:10891000C8E90033C8E90233C8F8103041E7DFF88E
:10892000C48098F80030022B12D098F81430022B33
:1089300000F0A883284B0121002219705A600DF124
:1089400014080024C8E90344C8F80840059428E73F
:1089500000239A001A4408EB820300205968009013
:10896000082308F822001D4A1D4802F019F80028C3
:1089700081D03568184A0DF114080023C8E9023384
:1089800053600593C8F8103048F20D6409E79CF86D
:108990000030072B09D8DFE813F0DC0208000800DC
:1089A0000E03FA0229002900D602013B062B6DD8DE
:1089B000DFE813F04C02260257003F006C00100263
:1089C0001C0000BF44400020144000203C40002018
:1089D000FC4000200C410020244000203C310400D9
:1089E000DC380020484000202C400020BB4BBC4A13
:1089F0001968BC4800230093CCF8043007238CF896
:108A00000030082301F0CCFF0446002C3FF433AFC4
:108A100035680DF1140841F61D5200239442C8E94F
:108A20000333C8F80830059308BF1C463FF4B9AEBD
:108A300016E3BCF80230DFF8C88203EB830308EBCF
:108A40008308D8F80C30002B40F04D8204228CF8BB
:108A50000020D8F80410A348012202F03FF8044691
:108A6000D3E7DCF804209D485388848801689D483A
:108A700003339BB29B0001EB840100240094032488
:108A80008CF8004001F08CFF0446BEE70DF114089D
:108A90000023C8E90333C8F80830059348F20E6490
:108AA0007FE68E4C904A21688E48DFF854824FF062
:108AB000000985F804900823CDF8009001F070FFBC
:108AC0008A4B25685B88A18803EB830308EB83024C
:108AD00008F8239053682360022355601181A38016
:108AE00045E77E4A7F481168002302242B71948059
:108AF000012201F0F3FF3AE7784B794A1968794887
:108B000001232B7100230093082301F049FF2EE776
:108B10002A4641F61D5409EB0A0108EB8101EB8856
:108B20000889033303440B81D144EB8808EB89089F
:108B3000C3F57F43B8F80A10FD330B441546A8F877
:108B40000A3066E76A4B6B4A1C88516865486A4A76
:108B500000234FF0060C85F816C00093042301F0A3
:108B60001FFF18BB04EB840408EB8408012388F87A
:108B700010300BB0BDE8F08F5E48AB695C49036014
:108B80004FF0000BC0F804B0FFF770FD002800F0B4
:108B90006A820223AB7504235248CDF800B0214607
:108BA000EA1801F0FDFE00283FF465AEAB7D3268A7
:108BB000022B48F20D64B7D9ADE7EB882A69494822
:108BC0004FF0010C04F10C01002485F816C09B0045
:108BD000009401F0E5FE0028E8D10BB0BDE8F08F6D
:108BE0002B694048002B14BF032301230022AB75DF
:108BF00004F108010092042305F10C0201F0D0FEFB
:108C000000283FF438AEAB7D3268022B48F20D6489
:108C10008AD980E7032A0CBF052306230022AB75FF
:108C200030480092211D042305F1080201F0B8FE2E
:108C30000028BBD10BB0BDE8F08F02230022AB753A
:108C40000423009227482146EA1801F0A9FE0028D3
:108C5000ACD10BB0BDE8F08F284B00225A604FF426
:108C600006440DF1140852E6AB7DDFF89480022B28
:108C700008D90AEB8A0208EB8202EB8811890333D8
:108C80000B4413814FEA8A0909EB0A01EB8808EBD0
:108C90008101C3F57F434A890DF11408FD33134464
:108CA0000022C8E903224B81C8F8082005924FF43E
:108CB000064476E502232B71CDE906440DF1140834
:108CC000EB68059340460DF11201FFF7CFFC002839
:108CD00040F09E8148F2096419E600BF104100206F
:108CE00044310400DC3800203C3104002C400020DA
:108CF0001C4100200840002038310400244000209E
:108D000048400020BB4B1B78002B00F09B81DFF814
:108D1000E8E2BEF80490B9F1010F12D8DFF8EC8256
:108D2000039409EB890208EB8202137883B109F1FD
:108D3000010399B201299946AEF8043002F11402F8
:108D4000F3D9AD480822002113F00AFF3568F6E593
:108D50005368DEF8001003F5805C03F1080A00296F
:108D600000F06E814B88033301EB83018C4506D8FC
:108D7000039BCEF80030DAE79C45F9D919460B6819
:108D80000133F5D04B88033301EB83039C45EFD3CC
:108D90008C88BC42F0D0B1F800B0BBF1000FEBD032
:108DA00088680130E8D0EB88CEF80010A342D6D115
:108DB00000230093914A9248042301F0F1FD00281A
:108DC00040F07E8109EB890908EB8908012388F8C6
:108DD000103050E5BCF80220DFF8308293001344D5
:108DE00008EB830806200023D8F80410854A009376
:108DF0008CF800000823824801F0D2FD044604E606
:108E0000BCF80200DFF80482DCF8042000EB8003E9
:108E100008EB83034FEA800E596801F58055002A5C
:108E200040F0E28001F10802AA426DD3704408EBE1
:108E30008008D8F80C30002B55D104208CF80000A5
:108E400001226F4801F04AFE0446DEE59CF80A3034
:108E500063B1DFF8B881D8F80C3000228CF80A2012
:108E600023B998F81020002A40F030819CF80B308C
:108E700053B1DFF89881D8F8203000228CF80B200D
:108E800013B998F8243073B90DF114080023C8E918
:108E90000333C8F808308CF80030ACF80230CCF856
:108EA000043005937DE4012318464FEA830E0EEB50
:108EB000030108EB8101DCF804204968ACF80200EA
:108EC00001F58055002A00F003815088033002EB41
:108ED0008002954200F2D880734408EB8308D8F8EA
:108EE0000C30002BA9D0484B4548196802229A80C3
:108EF00005228CF800200023012201F0EFFD04463A
:108F000083E5AB4292D21A46136801338ED0538860
:108F1000033302EB8303AB4288D89488BC42F0D081
:108F20001488002CEDD094680134EAD0CCF80420E9
:108F3000354C5388A5882168314803339BB29B0088
:108F400001EB850199E501238CF800309CF80A308B
:108F50007EE7DFF8B880BCF8081098F8142098F87D
:108F60000030B2FA82F252090131B3FA83F35B099D
:108F70008CF80B20ACF80810002201218CF80A3084
:108F8000ACF802208CF80C208CF8001060E7BCF8DC
:108F90000220DFF878801C4902EB820308EB830390
:108FA00008685D688C88586002201C810D6088808C
:108FB00002FA00F313E7BCF80200134CDFF84C8010
:108FC000DCF80420A388558800EB800108EB8101C0
:108FD000033349682B444FF0020901F58055A38003
:108FE00000FA09FE8CF800905388033302EB8302E9
:108FF0001AE700BF2440002020410020383104003F
:10900000DC3800203C3104001041002048400020A2
:109010000699334A8B88EB800B882B81314800946A
:109020000423BDF8124001F0BBFC38BB2E4B04EB0F
:10903000840403EB8404012323740BB0BDE8F08F98
:10904000514693E60DF1140821462848082213F0F2
:1090500087FDC8E902440594C8F8104048F201644D
:109060003568FFF79EBB0DF11408C8E902000590B2
:1090700048F20964C8F81000FFF793BB356848F25E
:109080000D6444E4012364E4106801303FF424AF2C
:109090005088033002EB80008542FFF41DAF9488B6
:1090A000BC4205D014881CB1946801347FF43EAFF3
:1090B00085427FF611AF024610680130E8D10BE718
:1090C000356848F20D640DF1140820E41846ECE60A
:1090D00001F10802FDE62A4648F20E641BE500BFD6
:1090E00038310400DC3800204840002020410020B6
:1090F0004068FFF72BBB00BF094A116804290BD059
:1091000038B5084C156803460121104644F825304F
:1091100000F0C4FF002038BD48F20B60704700BF6C
:1091200018410020144000202DE9F04F954D89B0E2
:109130002A780023CDE90333CDE90533079372B1D3
:10914000914C04F1100554F8043B03A803B198476F
:10915000A542F8D10024204609B0BDE8F08F281DB3
:1091600002F0FF0900F0B6FF0028F3D140F6F873D3
:109170001B685C1C41D04FF0805211695269DFF8C6
:1091800034828249C8F810304046A3F5405300228B
:10919000C8F80C3001F0D6FB04460028DBD17C492E
:1091A0007C48DFF814A21C238C2200F003FE264624
:1091B0004FF0030B2746D8F80C30F018F35827D09F
:1091C000754A934279D14368744A934278D0013208
:1091D000934222D1B9F1000F40F09C80704B71494D
:1091E000186000220193FFF7DFF9019B9B88022B97
:1091F0000CBF042308231C4328E06B4B4FF0805224
:109200001B6811695269581C08BF02FB01F3B6E7DD
:109210005A1C02D0604A93420AD1031D00F58051C6
:1092200001E0994261D01A68013203F10403F8D0D9
:1092300007EB87030AEB830203210BF1FF3B0137A6
:109240000AF823101FFA8BFBBFB2506006F5805658
:10925000B6F5405FAFD1BBF1010F40F29080E4B2B0
:10926000062C0ED1484C012200232A7004F110066E
:109270006B6054F8043B03A803B19847A642F8D1A9
:1092800068E702D814F0FD0F79D002A9414800F038
:10929000CBFD1C220546002113F062FC002D68D096
:1092A0000123013C2B700A2C4ED8DFE804F04B4D13
:1092B0004B4D5F4D5F4D5C655C000133B8D1ACE751
:1092C00007EB870300220AF8232099000AEB8303A7
:1092D00001F1100208315244514458600137FFF740
:1092E00063F944F00204BFB2B0E72D4B1A681AB319
:1092F00007EB87030AEB83010222DFF8B0C0486066
:109300000A810AF82320791CACF802708FB244F06D
:1093100001049BE7254A224B578007EB870E0AEB97
:109320008E024FF0020C19680AF82EC00137516006
:10933000A2F808C0BFB252E7022218609A804FF02C
:109340000109E4E700232B7102A9124800F09AFDFD
:109350001748012100F094FE044600287FF4FAAE7D
:10936000FFF7F4F9F7E603232B71EDE701232B71E7
:10937000EAE748F20764EEE602232B71E4E748F2DD
:109380000A64E8E62440002014400020D839040094
:1093900070400020FC400020DEC0ADDEFE011EF16A
:1093A0001041002014410020141000102C40002017
:1093B0000C410020DC3800204840002030B370B55C
:1093C0000D4682B0F1B10DF106010446FFF74EF9EA
:1093D00018B948F2096002B070BDBDF806000D4B27
:1093E000666800EB800003EB800001210C3000F088
:1093F00055FE2E60636801220C3300206B60A27260
:1094000002B070BD48F2046002B070BD48F2046062
:10941000704700BF4840002010B310B582B00DF176
:1094200006010446FFF722F9B0B1BDF806300E4A36
:1094300003EB830302EB8303DA684AB1A27A3AB101
:10944000DA680021013A0846DA60A17202B010BD64
:1094500048F2056002B010BD48F2096002B010BDCC
:1094600048F20460704700BF484000202DE9F047F3
:10947000514B1B7882B083B30C46002945D00A8833
:109480004FF6FF739A4222D04B8803B34D6815F014
:10949000030534D1B1F8089009F103039BB240F2FF
:1094A000FE32934234D8454A1178074639B950897B
:1094B00011890144194489B2B1F5806F2BD9117D0E
:1094C00089B148F20665284602B0BDE8F08748F247
:1094D0000365284602B0BDE8F08748F201652846DA
:1094E00002B0BDE8F087D08B918B0144194489B25A
:1094F000B1F5806FE5D84FF0010841460DE048F224
:109500000265284602B0BDE8F08748F20465DAE754
:1095100048F20865D7E7A84629464FEA810A8A44F7
:1095200002EB8A0A034401A92548AAF80A3000F090
:109530007BFC1C220646002113F012FB002E2FD0CC
:1095400002234FF0000AA6F81480337086F816A0A4
:109550006368336101211B4800F0A0FDF06023889F
:10956000338163881648B38001A9A6F80AA0A6F83B
:10957000069000F087FC47B1C7F804A0F268124BD0
:109580003A601B8987F80AA03B811048012100F04E
:1095900077FD0446002896D1FFF7D8F8254692E7D4
:1095A000BAF80A30C9F57F4909F1FD099944AAF8CA
:1095B0000A9048F2076586E72440002048400020D2
:1095C000FC400020404000202C4000200C410020A6
:1095D0002DE9F04782B068B3524B1B78002B41D085
:1095E0000C4639B30A884FF6FF739A4234D04B8841
:1095F00093B34E6816F003063AD1B1F808A00AF109
:1096000003039BB240F2FE32934234D8464A1178AB
:10961000054639B9518910890844184480B2B0F51B
:10962000806F2BD9117D59B148F20666304602B0E1
:10963000BDE8F08748F20466304602B0BDE8F08726
:10964000D18B908B0844184480B2B0F5806FEBD872
:109650004FF00109484613E048F20366304602B075
:10966000BDE8F08748F20166304602B0BDE8F087F9
:1096700048F20266DAE748F20866D7E7B1463046B4
:109680004FEA8008804402EB88080B442748A8F87A
:109690000A3001A900F0C8FB1C220746002113F084
:1096A0005FFA002F32D04FF000080323A7F8149080
:1096B0003B7087F8168063683B6101211C4800F00D
:1096C000EDFCF86023883B816388BB800423A7F806
:1096D00006A0BB752B68BB6101A91448A7F80A80D6
:1096E00000F0D0FBC5F80480FA68124B2A601B8991
:1096F000114885F80A802B81012100F0C1FC044645
:10970000002893D1FFF722F826468FE7B8F80A30F1
:10971000CAF57F4A0AF1FD0A9A44A8F80AA048F25D
:10972000076683E72440002048400020FC400020DA
:10973000404000202C4000200C41002070B51D4B03
:109740001B7882B00BB34FF6FF739842044626D0C5
:1097500001A9194800F068FB1C220546002113F0FE
:10976000FFF9BDB105230126EC8001A92B70124839
:109770002E7100F087FB1148314600F081FC044651
:1097800090B10024204602B070BD48F2016420462A
:1097900002B070BD48F20764204602B070BD48F2C6
:1097A0000364204602B070BDFEF7D0FF204602B031
:1097B00070BD00BF24400020FC4000200C41002070
:1097C00010B5194B1B7882B0F3B101A9174800F00E
:1097D0002BFB1C220446002113F0C2F9F4B106232E
:1097E0002370124801A900F04DFB114B1A780AB101
:1097F00001221A730F48012100F042FC044640B1D7
:109800000024204602B010BD48F20164204602B098
:1098100010BDFEF79BFF204602B010BD48F2076462
:10982000204602B010BD00BF24400020FC400020B4
:109830002C4000200C4100202DE9F047324C2478C8
:10984000002C59D0002A5BD0002B59D09F88012FC3
:1098500014D82E4E07EB87048A4606EB84064FF693
:10986000FF7E4FF0000834785CB10137BCB2022CA7
:109870009C8006F114064FF00107F4D148F209600C
:1098800035E01C68756805F5805C002C31D0658872
:10989000033504EB8504644505D3C3F80080E4E791
:1098A000AC45FAD92C4625680135F6D065880335D4
:1098B00004EB8505AC45F0D3B4F80490F145EFD046
:1098C000B4F80090B9F1000FEAD0A1680131E7D0F7
:1098D0001C60A5888542D5D125885545D2D1A1687F
:1098E000116019680A4B51601B8913810020BDE883
:1098F000F08705F10804CEE748F20160BDE8F08783
:1099000048F20460BDE8F087244000204840002071
:109910002C400020304B1B78002B56D0002957D00C
:10992000002A55D02DE9F041B2F804E0BEF1010F54
:1099300014D82A4D0EEB8E0305EB83054FF6FF7707
:109940004FF0000C2B7863B10EF101039BB2022B98
:10995000938005F114054FF0010EF3D148F2096030
:109960002EE013686C6804F580585BB35C880334A0
:1099700003EB8403434505D3C2F800C0E4E7A045E8
:10998000FAD923461C680134F6D05C88033403EB13
:109990008404A045F0D39E88BE42F0D01E88002EDD
:1099A000EDD09E680136EAD013601C888442D9D17C
:1099B0009B680B6012680A4B4A601B890B81002070
:1099C000BDE8F08104F10803D4E748F20160704774
:1099D00048F20460704700BF244000204840002047
:1099E0002C400020304B1B78002B56D0002957D03C
:1099F000002A55D02DE9F041B2F804E0BEF1010F84
:109A000014D82A4D0EEB8E0305EB83054FF6FF7736
:109A10004FF0000C2B7863B10EF101039BB2022BC7
:109A2000938005F114054FF0010EF3D148F209605F
:109A30002EE013686C6804F580585BB35C880334CF
:109A400003EB8403434505D3C2F800C0E4E7A04517
:109A5000FAD923461C680134F6D05C88033403EB42
:109A60008404A045F0D39E88BE42F0D01E88002E0C
:109A7000EDD09E680136EAD013609C888442D9D12B
:109A80009B680B6012680A4B4A601B890B8100209F
:109A9000BDE8F08104F10803D4E748F201607047A3
:109AA00048F20460704700BF244000204840002076
:109AB0002C40002020B119B103680B6000207047D2
:109AC00048F20460704700BF5A4B1B78002B00F02F
:109AD000A9802DE9F04F044683B0002800F0A5804E
:109AE0001222002113F03CF8DFF84CE16088218954
:109AF0006589B4F80C80DFF8449103237246238013
:109B000000264FF6FF7C13895789D2F804A03B4406
:109B10009BB2BAF1000F55D0DAF800704F4551D121
:109B2000DAF8047007F16E6707F5FF370237012F87
:109B300048D8B70037440EEB87071D44FF680192F1
:109B4000384480B260805789C3F580639BB2394442
:109B50004345ADB289B288BFA38121816581576831
:109B600088BF984607F1080307F580571A68013245
:109B700021D0B3F802A00AF1030A03EB8A0A574581
:109B80003AD3B3F804A0E24520D0B3F800A0BAF16C
:109B9000000F1BD09A68013218D0B4F804A00AF163
:109BA000010AA4F804A0B3F802A00AF1030A03EB27
:109BB0008A039F42DAD8019A14328EB3002003B090
:109BC000BDE8F08F2788013F2780B2E7B4F806B0E0
:109BD000B4F80EA00BF1010BA4F806B0B3F802B074
:109BE0000AF1030ADA44A4F80EA0B3F802A00AF1BD
:109BF000030A03EB8A03DCE74FF0010AB4F80EB066
:109C000084F810A0B4F806A0019AFB1A0BEBA3038A
:109C10000AF1010AE381A4F806A01432002ECDD186
:109C2000012670E748F20160704748F2046003B013
:109C3000BDE8F08F2440002048400020DEC0ADDEAB
:109C4000BFF34F8F0549064BCA6802F4E062134325
:109C5000CB60BFF34F8F00BFFDE700BF00ED00E01A
:109C60000400FA052DE9F04782B08046FDF71EFB9F
:109C7000FCF754FC0028FBD1344B354F9D6A354B23
:109C8000B8F1000F57D0FF1AFF083F0447F0010753
:109C9000D8F8182030493846FCF74AFED8E9023295
:109CA00001920093D8E900232C493846FDF7DEF8ED
:109CB000D8F81C300093D8E9042329493846FCF72A
:109CC000EFFF224BDB6A980722D4DFF8ACA0DFF865
:109CD000AC900024012606FA04F32B4206D05AF871
:109CE0002420494638460AB1FCF722FE01341A2CDA
:109CF000F1D1290618D42A040FD41A4B1B68DB07AC
:109D000000D500BE4046FFF79BFF02B0BDE8F087DC
:109D100015493846FCF73CFDD7E70C4B13499A6BC5
:109D20003846FCF705FEE8E7084B11495A6B384600
:109D3000FCF7FEFDDFE7FF1AFF083F0447F00107CD
:109D40000C493846FCF724FDBBE700BF00ED00E0FE
:109D50000C6C0400946B04004C310400643104006A
:109D60009C310400F0ED00E0F8310400683204009A
:109D700048320400C4310400643704003C3204005B
:109D80001EF0040F1CBFEFF309800AE0EFF3088018
:109D90000549064A884201D8904202D88D464FF0C4
:109DA0000000034B184700000000012000E00020E5
:109DB000659C020099B110B4B2FBF3F403FB1424C8
:109DC000A4B244B9C0E9001484608281C3812046F2
:109DD0005DF8044B704709205DF8044B70470E2076
:109DE000704700BF82B050E8022FC188B2EB324FFB
:109DF0004FF0000317BF92B241EA014142EA01412C
:109E000004E04268B2EB324F08BF012340E802127F
:109E1000002AE8D18DF807309DF80730002B0CBFE1
:109E20001120002002B0704730B482B050E8013FEA
:109E30009DB2C48925448489A54228BF2D1B04896D
:109E4000A54202BFBFF32F8F002207E0C5EA03053A
:109E500040E80154002CE9D14FF001028DF80320B5
:109E60000193019B9DF803200B602AB10B880068C9
:109E7000184402B030BC704702F0FF03184602B02D
:109E800030BC70470A884B889A4201D00020704746
:109E900050E8012FC2EA024240E80123002BF7D12B
:109EA0000120704730B482B050E8023F1FFAA3F59A
:109EB000C488A54202BFBFF32F8F00220DE0C489E2
:109EC00025448489A54228BF2D1BC3EA054540E8E7
:109ED0000254002CE8D14FF001028DF803200193C9
:109EE000019B9DF803200B602AB14B880068184441
:109EF00002B030BC704702F0FF03184602B030BC1D
:109F0000704700BF0A884B889A4201D000207047F2
:109F100050E8022FC2EA224240E80223002BF7D188
:109F2000012070474A09012301F01F0100EB820064
:109F300003FA01F100F088B84B0910B501F01F04D5
:109F4000012100EB8300A14000F070F8E04000F038
:109F5000010010BD01F01F0201234909934000EBED
:109F60008100D94300F07EB84B0901F01F0150F881
:109F70002300C84000F00100704700BF2DE9F04FFA
:109F800001F1FF3A83B04FEA5A130D46044601939C
:109F90004FF000094FF0010854F8293004EB89060E
:109FA0006FEA030B9BFAABFBBBFA8BFBBBF1200FF9
:109FB00025D00BEB491B5D454FEA49170CD81EE035
:109FC0003368DB4393FAA3F3B3FA83F3202B07EB55
:109FD000030B14D05D4512D90BF01F034FEA5B1041
:109FE00008FA03F104EB80009A4600F01FF820FA0B
:109FF0000AF0C307E4D4584603B0BDE8F08F019AD5
:10A000004A4509F1010301D09946C5E7AB46F2E79D
:10A0100010B4034653E8000F0A4643E8002494F0C6
:10A02000000FF7D15DF8044B704700BF10B4034632
:10A0300053E8000F40EA010243E8002494F0000FC7
:10A04000F6D15DF8044B704710B4034653E8002F77
:10A0500042EA010043E8000494F0000FF6D15DF8F5
:10A06000044B704710B4034653E8002F02EA010086
:10A0700043E8000494F0000FF6D15DF8044B7047FC
:10A0800010B4034653E8000F00EB010243E800243C
:10A0900094F0000FF6D15DF8044B704710B40346FE
:10A0A00053E8002F02EB010043E8000494F0000F96
:10A0B000F6D15DF8044B704710B4034653E8002F07
:10A0C000A2EB010043E8000494F0000FF6D15DF824
:10A0D000044B704710B40346012253E8000F40EAD6
:10A0E000020143E8001494F0000FF6D15DF8044B30
:10A0F000704700BF10B40346012253E8001F41EA35
:10A10000020043E8000494F0000FF6D15DF8044B20
:10A11000704700BF10B40346002253E8000F00EA66
:10A12000020143E8001494F0000FF6D15DF8044BEF
:10A13000704700BFB8B130B4D0E90112521A0468B8
:10A14000D2B2531E2160DBB242B101680A685C1EC4
:10A15000551C0D601370E3B2FF2BF6D1036800208D
:10A16000187130BC70470E20704700BFF0B583B047
:10A17000044600250DF107008DF80750FEF77AF828
:10A18000D4E900311A688A4210D9511E1960216839
:10A19000A3680F6812F8015C0A79268AE068DB1B65
:10A1A000DBB29A4206FB050538BF0B719DF807002C
:10A1B000FEF786F8284603B0F0BD00BF30B505466F
:10A1C00083B000230DF107000C468DF80730FEF731
:10A1D00051F82A681368591C1160E9682A8A641AC0
:10A1E000B4FBF2F41C709DF80700FEF769F803B0A9
:10A1F00030BD00BF826842B110B5044643690168B2
:10A20000006998470023A36010BD70470EB400B5E5
:10A2100082B0039921B104AB01AA019300F0ACF81C
:10A2200002B05DF804EB03B0704700BF2DE9F04FBA
:10A23000164683B0B142DDE90C920F4605469A46B8
:10A24000C0F095800B464FF00108B3FBF6F39E4239
:10A2500008F10108F9D9D04538BFD04612F0010302
:10A26000019302D1B9F1000F5ED1AA68012403E085
:10A270000AF1FF3A06FB04F4BAF1010FF8D8B7FB74
:10A28000F4F39E42F6D9DFF8ECA007E0B442B4FB49
:10A29000F6F31AD3AA681C46B7FBF3F31AF803B017
:10A2A000BBF10A0F04FB137728D02B68511CA9605F
:10A2B00003F802B0D5E901329A42E7D32846FFF706
:10A2C00099FFB4FBF6F3B442E4D2019B9BB1B9F120
:10A2D000000F10D02024C84509F1FF390BD2AB681C
:10A2E0002A68591CA960D454D5E901329A4214D283
:10A2F000B9F1000FEFD103B0BDE8F08F511C2B680E
:10A30000A9604FF00D019954D5E901329A42CCD39E
:10A310002846FFF76FFFAA68C7E72846FFF76AFFDE
:10A32000B9F1000FD7D1E6E793071AD42024AA6821
:10A33000C84502F1010199D22B68A9609C54D5E966
:10A3400001329A4209F1FF3903D2B9F1000FEFD17E
:10A350008CE72846FFF74EFFAA68B9F1000FE7D156
:10A3600084E7BAF1000F0CBF30242024DFE74FF060
:10A37000010870E7CC370400002900F054822DE971
:10A38000F04FDFF8B8950C7885B0064690460D463C
:10A390004FF00D0A10E00A2CB36800F0AD8032686F
:10A3A000591CB160D454D6E901329A4280F0A080A1
:10A3B0002C78002C00F087800135002C00F0838081
:10A3C000252CE8D1294600270D4611F8012B2D2A0E
:10A3D00000F08880302A00F088802B2A7AD02A2A40
:10A3E00000F09980A2F13003092B4FF000040BD844
:10A3F00004EB840402EB440415F8012FA2F13003AE
:10A40000092BA4F13004F3D92E2A00F09080002308
:10A4100001E015F8012F02F0FB016829F9D0252A87
:10A4200000F07781583AD1B2202947D8202A45D860
:10A43000DFE812F0350144004400440044004400C9
:10A44000440044004400440044004301130144001C
:10A45000440044004400130144004400440044000C
:10A4600044004400D20044004400A2004400940090
:10A4700044004400350101209842024638BF1A4684
:10A480000292002C40F05081B80740F16E81002B01
:10A4900040F04E821C46BBF1000FC0F20A827A07E0
:10A4A00000F11A8207F00302022A00F0EA81CDE9E6
:10A4B000004759460A223046FFF7B8FE01352C788E
:10A4C000002C7FF479AF337B002B40F01C8105B06A
:10A4D000BDE8F08F0D4611F8012B2D2A47F0040737
:10A4E0007FF478AF47F001076EE747F002076BE7AC
:10A4F0003046FFF77FFE5BE73268591CB16002F817
:10A5000003A0D6E901239342FFF449AF3046FFF799
:10A5100071FEB36843E7D8F800301A1DC8F8002070
:10A520006A781C682E2A05F101057FF470AF6A78FD
:10A53000A2F13003092B05F101054FF000033FF6AE
:10A540006AAF03EB830302EB430315F8012FA2F17B
:10A5500030010929A3F13003F3D95CE7D8F80020D2
:10A56000111DC8F8001011683046CDE900470A22D5
:10A57000FFF75CFE0135A2E7D8F800301A1DC8F8D5
:10A58000002017F00107D3F800B040F0F080BBF1D5
:10A59000000F03D0584614F029F80746BC4240F299
:10A5A0004381002C00F04081202205E0BC4200F0F5
:10A5B0003B81002C00F03881B1683368481CB060E2
:10A5C0005A54D6E90130984204F1FF34EED33046B4
:10A5D000FFF710FE2022E9E7D8F80020131DC8F885
:10A5E0000030B36831681768581C3022B060CA5414
:10A5F000D6E90123934280F0EF803268581C78211D
:10A60000B060D154D6E901329A4280F0E0800F2F39
:10A6100003D93B461B090F2BFCD84FF0805406E0B2
:10A620000F2C4FEA14137FF649AFB2681C46B7FBF4
:10A63000F4F319F803B0BBF10A0F04FB137754D0FD
:10A640003368511CB16003F802B0D6E901329A4276
:10A65000E6D33046FFF7CEFDE2E7D8F80020111D23
:10A66000C8F80010D2F800B08BEAEB72A2EBEB72E4
:10A67000092A7FF700AFDFF8C8C20120114663291D
:10A68000ACFB02E200F101004FEAD202F6DC984294
:10A69000024638BF1A460292002C45D1F4E6D8F89B
:10A6A0000020111DC8F8001011683046CDE90047A0
:10A6B0001022FFF7BBFD013501E7D8F800301A1D65
:10A6C000C8F800201C78B3680A2C00F011813268A9
:10A6D000591CB160D454D6E901329A42FFF4EEAE6F
:10A6E0003046FFF787FD0135E9E63368511CB1605C
:10A6F00003F802A0D6E901329A42A1D33046FFF70F
:10A7000079FDB2689CE7304605B0BDE8F04FFFF731
:10A7100071BDB3683168581CB060CA54D6E90132C3
:10A720009A42DDD20135CAE6BBF1000F59DB7A0748
:10A7300057D4B80702D5002B3FF4ADAEF9073FF56B
:10A74000AAAE94B120220299A142BFF4A4AEB1688E
:10A75000481CB06030684254D6E90101814204F1DE
:10A76000FF3480F0D480002CEDD1002493E69BF8D8
:10A770000030002B00F0E080B0685F46CBF10102B2
:10A780000A2B02EB070B3CD0411CB16031680B5423
:10A79000D6E90130984226D217F8013F002BEFD1BD
:10A7A0005C457FF68BAE202702E05C453FF486AE29
:10A7B000B2683368511CB1609F54D6E901329A42A5
:10A7C00004F1FF34F1D33046FFF714FDEDE73046D6
:10A7D000FFF710FDB2681AE73046FFF70BFDB368CC
:10A7E0000BE7013CA5E730460292FFF703FD17F89F
:10A7F000013F002BD4D0029AB0680A2B02EB070B62
:10A80000C2D1411CB160316801F800A0D6E9011045
:10A810008842B9D33046CDE90232FFF7EBFCDDE9DF
:10A820000232B068B0E770479BF80040002C3FF45C
:10A8300045AE0A2CB0680ED03368421CB2601C547E
:10A84000D6E90130984214D21BF8014F002C3FF496
:10A8500035AE0A2CF0D13368421CB26003F800A078
:10A86000D6E901309842E7D33046FFF7C3FCB06821
:10A87000E2E73046FFF7BEFC1BF8014F002CD8D1B1
:10A880001CE6002B7FF413AE8CB130220299A1425A
:10A89000BFF40DAEB168481CB06030684254D6E9D0
:10A8A0000101814204F1FF343BD2002CEED100249F
:10A8B000FDE5B1684A1CB26032682D205054D6E9DB
:10A8C00001219142CBF1000BFFF4ECAD3046039334
:10A8D000FFF790FC039BE5E5B1684A1CB260326863
:10A8E0002B205054D6E901219142FFF4DBADEDE776
:10A8F0003268591CB16002F803A0D6E901239342E3
:10A90000FFF4E5AE3046FFF775FCB368DFE630468E
:10A910000393FFF76FFC039B2022002C7FF413AFFF
:10A9200023E730460393FFF765FC039B3022BCE727
:10A93000F9073FF5B0AD18E79B4631E7CC37040087
:10A94000CDCCCCCC10B582B040B10B46B9B10360D0
:10A950001B68114602B0BDE8104018470A480B4C6E
:10A960000B4B0C4A0C49001BC0080E24000440F09D
:10A9700001000094FCF794F90E2002B010BD0248CB
:10A98000024C034B054AEDE7246C0400946B040071
:10A9900090390400DC370400E43704001038040068
:10A9A0002DE9F04182B0002858D0002A68D0D0F8B4
:10A9B00000E0BEF1000F68D01D4673B34768D7F8BA
:10A9C0000480B3FBF8F708FB1737002F37D18F0748
:10A9D0003AD112F0030F3CD1C768B94211D23348C3
:10A9E000334C344B344A3549001BC0081024000452
:10A9F00040F001000094FCF753F9204602B0BDE896
:10AA0000F08104694E1E3544A542E8D8DEF80C40BA
:10AA1000A44602B0BDE8F04160472448244C254BD1
:10AA2000274A2649001BC0080924000440F0010001
:10AA30000094FCF735F9204602B0BDE8F0811B48D0
:10AA40001B4C1C4B1F4AECE71848194C194B1E4A6B
:10AA5000C9E71648164C174B1C4AC4E71348144C58
:10AA6000144B1B4A1549001BC0080E24000440F07B
:10AA700001000094FCF714F9204602B0BDE8F08113
:10AA80000A480B4C0B4B134AECE7094C0748094B9F
:10AA9000114A0A49001BC0080824000440F00100C4
:10AAA0000094FCF7FDF82046A8E700BF246C0400E2
:10AAB000946B0400A4390400E0380400E437040077
:10AAC0002C38040078380400A4380400BC38040092
:10AAD000DC3704007038040018380400F0B583B087
:10AAE000002843D0D0F800C0BCF1000F4ED03AB3DC
:10AAF0004768D7F800E00EF1FF370F4231D1C76841
:10AB0000B94210D229482A4C2A4B2B4A2B49001B08
:10AB1000C0081024000440F001000094FCF7C0F8C5
:10AB2000204603B0F0BD04694D1E0EFB0255A54240
:10AB3000E8D8DCF81040A44603B0BDE8F040604718
:10AB40001B4C1A481B4B1E4A1C49001BC0080924F9
:10AB5000000440F001000094FCF7A2F8204603B086
:10AB6000F0BD1248124C134B164ACFE7104C0F4859
:10AB7000104B154A1149001BC0080E24000440F078
:10AB800001000094FCF78CF82046CAE7084C0748FF
:10AB9000084B0E4A0949001BC0080824000440F075
:10ABA00001000094FCF77CF82046BAE7246C04000E
:10ABB000946B0400B839040030390400E437040011
:10ABC0002C38040008390400DC370400183804006D
:10ABD00029DF704728DF704708467047002070471C
:10ABE000024B187A003818BF01207047C44100207A
:10ABF000034B187A0122B0FA80F05A74400970476A
:10AC0000C441002008B510461A4611F09BFF0020F1
:10AC100008BD00BF08B514220021044811F0A0FFB0
:10AC20000348FFF7DFF8002008BD00BFC441002043
:10AC3000B441002038B50A4C0A4B43602046FFF768
:10AC400049FA08B1002038BD0BF0A0FD06490546C1
:10AC50001C238C2205482574FFF7ACF8002038BD72
:10AC6000C4410020CC39040028410020B441002018
:10AC700030B5394D2B7A87B0002B39D0374B1C6853
:10AC800002232B722379002B3DD0012B24D0226884
:10AC90009368C3B10023CDE9033302930093A36803
:10ACA0000593032301932379002B48D0012B07D16F
:10ACB000E368616904911B03022102938DF800107F
:10ACC0009368684698470023254926482B726B6095
:10ACD000FFF718F907B030BDD4E903031844FFF7B4
:10ACE00079FF20B31128D2D101232B7207B030BDD8
:10ACF0001B491C48FFF7D6F8184B0446186000287B
:10AD0000BED16860E6E7D4E90520121AB2F5805F8B
:10AD100028BF4FF48052D4E903139208012A38BFA8
:10AD2000012201441844FFF753FF0028DAD12B7C9D
:10AD3000002BCFD10146022000F016F8CAE72069A7
:10AD4000E1680123CDE902018DF8003063690493C5
:10AD5000936868469847B6E7C4410020DC4100206C
:10AD6000D8410020B4410020831E012B3FD810B5EC
:10AD7000334C237A86B0002B37D0022B31D10328F5
:10AD80003AD0304B00221B68E2601A79002A40D08A
:10AD9000012A26D1D3E9042101328A421A6120D145
:10ADA0000020207219688A68BAB10022CDE9032216
:10ADB000029200929A68019005921A79002A35D081
:10ADC000012A07D1DA685B69049313030222029314
:10ADD0008DF800208B68684698471B491B48FFF791
:10ADE00091F8637C23B9FFF743FF06B010BD7047AD
:10ADF0000BF0BCFC06B010BDE3680133082B01D892
:10AE0000E360EEE70F4B00221B68E26022720D2028
:10AE1000C8E7D3E90512881AB0F5805F94BF12180D
:10AE200002F5805291429A61DBD1B9E7012218699B
:10AE30008DF80020DA685B690493CDE90202C9E766
:10AE4000C4410020DC410020D8410020B441002052
:10AE50002DE9F04784B007460E461A4803A9154667
:10AE60009A46FEF7E1FF40B3044600211C228846C3
:10AE7000DFF8549011F074FE0C9B12482760C4E96F
:10AE80000356A360C4F814A003A984F80480FEF755
:10AE9000F9FF09F10400FFF71DF918B1404604B0AD
:10AEA000BDE8F08799F81130002BF8D10190FFF739
:10AEB000DFFE019804B0BDE8F087042004B0BDE8CF
:10AEC000F08700BFB4410020C44100202DE9F043C9
:10AED00085B081460D46194803A916461F46FEF760
:10AEE000A3FF30B304461C22002111F039FEDFF825
:10AEF00050801248C4F8009001232D0BC4E902755C
:10AF0000666103A92371FEF7BDFF08F10400FFF796
:10AF1000E1F818B1002005B0BDE8F08398F81130D1
:10AF2000002BF8D10190FFF7A3FE019805B0BDE812
:10AF3000F083042005B0BDE8F08300BFB4410020D9
:10AF4000C441002000F0FD03012B00D0704730B554
:10AF50003B4DA0F10100B0FA80F02B7A40090022AD
:10AF600087B028746A74002B4AD0364B1C680223C1
:10AF70002B722379002B4ED0012B07D1D4E9030388
:10AF80001844FFF727FE48B311281BD022689368A6
:10AF90007BB10023CDE9033302930093A3680593AB
:10AFA0000323019323790BB3012B0ED093686846DA
:10AFB00098470023244925482B726B60FEF7A2FFB7
:10AFC00007B030BD01232B72FAE7E3686169049191
:10AFD0001B03022102938DF80010E7E72B7C002B66
:10AFE000EED101460220FFF7BFFEE9E72069E168E4
:10AFF00001238DF8003063690493CDE90201D5E7A0
:10B0000011491248FEF74EFF0E4B04461860002807
:10B01000ADD16860D4E7D4E90520121AB2F5805F9B
:10B0200028BF4FF48052D4E903139208012A38BF95
:10B03000012201441844FFF7CBFD0028A4D1CDE73D
:10B04000C4410020DC410020D8410020B441002050
:10B05000FFF770B82DE9F041058A0331043D4E1920
:10B060008046B6FBF5F6FFF781F8A0B3F6B24FF4D1
:10B070008073013E0446C580C0F8008083802BD0D9
:10B080000346002508E06279AE4202F101026271D6
:10B090003860C0F800801FD040461F46FFF766F8B2
:10B0A000013503460028EED16779791E17D0224674
:10B0B000013399421268FBD1D2F800805FB1266853
:10B0C000002501E034463668214601354046FFF749
:10B0D00075F8AF42F6D800242046BDE8F08120681C
:10B0E0002146FFF76BF8F6E7F8B546790146701E82
:10B0F00013D00A460023013398421268FBD1176827
:10B1000056B10D68002401E029462D680134384607
:10B11000FFF754F8A642F7D8F8BDBDE8F840086834
:10B12000FFF74CB804300121FEF7B8BF2DE9F0411C
:10B13000012104460430FEF7BFFF10F0FF0301D0E9
:10B14000BDE8F0816779791E16D022460133994215
:10B150001268FBD1D2F80080002FF1D026680025BC
:10B1600001E034463668214601354046FFF726F8AF
:10B17000AF42F6D8BDE8F08120682146BDE8F04135
:10B18000FFF71CB82DE9F8430546C68840791446F8
:10B1900006FB00F2043A04EB030C1F1D624538BFA6
:10B1A000D41ABE428846B7FBF6F106FB117002D8EE
:10B1B00001392D68FCD1371AA74228BF27469CB118
:10B1C0004FF000090430E41B28443A4608EB09011B
:10B1D00011F0B8FCA642B9442D6837464FF0000084
:10B1E00028BF2746002CEDD1BDE8F8832DE9F843B0
:10B1F0000546C6884079144606FB00F2043A04EB83
:10B20000030C1F1D624538BFD41ABE428846B7FBE7
:10B21000F6F106FB117002D801392D68FCD1371AFE
:10B22000A74228BF27469CB14FF0000904302918D7
:10B23000E41B3A4608EB090011F084FCA642B9442D
:10B240002D6837464FF0000028BF2746002CEDD16F
:10B25000BDE8F883064A074B10B5002414701C6043
:10B26000BFF35F8F0449054800F018F8204610BD71
:10B27000E8410020EC410020043A0400E0410020B5
:10B2800082680023936082681361826853618268D8
:10B29000D3608268536082681360704701600B68F6
:10B2A00043604A68934204BF00234360704700BF75
:10B2B000436843B1026891680B444360526893420B
:10B2C00004BF00234360704770B544680646206899
:10B2D0000D4618B908E02468206828B1B3682946EB
:10B2E00098470028F7D120682860256070BD00BF0E
:10B2F0004368186808B102681A60704743681868A4
:10B30000704700BF4368186818B908E00346006832
:10B3100028B18142FAD10A681A600120704770474B
:10B32000114910B4A1F5947205E052F833309842F7
:10B3300038BF21460CD28C1AE30F03EBE4035B10F9
:10B34000914202EBC304F0D808485DF8044B704703
:10B3500002D904F10802EEE76068044B5DF8044B83
:10B36000002808BF18467047443F0400083E040008
:10B3700030B4B84B1B78062B20D0B74B1B68062B7C
:10B3800000F08180B54AD2F8883043F47003C2F8E7
:10B390008830BFF34F8FBFF36F8F4FF01023D3F878
:10B3A0000022002AC0F28681D3F80432002BC0F2BA
:10B3B0008181AB4BAB4A1A6030BC7047AA4B1B680B
:10B3C0001D07DAD1A94B1B6803F0F002302A00F008
:10B3D0009B8003F0E003402B00F09680A34B1B689A
:10B3E00003F0F003302B00F0A080A04B1B6803F0AB
:10B3F000F002302A77D003F0E003402B73D09B4B50
:10B400001B6803F0F003302B00F01481974B1B688E
:10B4100003F0F002302A52D003F0E003402B4ED06C
:10B42000924B1B6803F0F003302B00F0F5808F4B3C
:10B430001B6803F0F003302B00F0D7808B4B1B68A8
:10B4400003F0F003502B7ED0884B1B6803F0F00212
:10B45000302A23D003F0E003402B1FD0834B1B681E
:10B4600003F0F002302A03D003F0E003402B84D134
:10B470004FF08043D3F80024D20744BF6FF001029D
:10B48000C3F8002479E77A4B1B68062B7FF47AAF68
:10B49000784A136843F48063136073E7764B6D4A10
:10B4A0001B681278754903F04F03062A0B607FF47E
:10B4B00064AF6D4B1B6819077FF45FAFCEE7654A39
:10B4C00011784FF0804300220629C3F80C21C3F8FD
:10B4D0001021C3F838257FF450AF634B1B681B075E
:10B4E0007FF44BAF9CE7664B5A4A1B68127865495C
:10B4F000C3F34233062A0B607FF43FAF5A4B1B68FD
:10B5000019077FF43AAF7AE75F4B524A1B6812780B
:10B510005E49C3F30423062A0B607FF42EAF524B1F
:10B520001B681C077FF429AF58E74A4B584A1B7821
:10B5300058491160062B7FF420AF4B4B1B6818074E
:10B540007FF41BAF51E74FF08052534BD2F80414F5
:10B55000C3F82015D2F80814C3F82415D2F80C1437
:10B56000C3F82815D2F81014C3F82C15D2F8141407
:10B57000C3F83015D2F81814C3F83415D2F81C14D7
:10B58000C3F84015D2F82014C3F84415D2F8241497
:10B59000C3F84815D2F82814C3F84C15D2F82C1467
:10B5A000C3F85015D2F83014C3F85415D2F8341437
:10B5B000C3F86015D2F83814C3F86415D2F83C14F7
:10B5C000C3F86815D2F840142248C3F86C15D2F8B5
:10B5D00044140278C3F87015062A7FF4CEAE224BCD
:10B5E0001B6818077FF4C9AE2EE71A4B2B4C1B784B
:10B5F0002B492C482C4A0525256001250D60002487
:10B600003F21062B046011607FF4B7AE164B1B6818
:10B610001C077FF4B2AE11E70E4B244A1B780321BE
:10B62000062B11607FF4A9AE0F4B1B681D077FF43A
:10B63000A4AEFCE61E4A0749D368097823F080735C
:10B640000629D3607FF499AE074B1B681A077FF475
:10B6500094AEDBE6E00F00F03001001000ED00E0FA
:10B66000243000200090D003E40F00F0E80F00F039
:10B67000340100103C17004058020010E40E004056
:10B68000440200103C0500402403001040350140F6
:10B6900074C007400DF0ADBA00C000401056004025
:10B6A000885600401856004014560040A00500403F
:10B6B000F0ED00E0184A0123C2F80435D2F8003456
:10B6C000002BFBD04FF010231521134AC3F80012B2
:10B6D000D2F80034002BFBD04FF0102315210E4A76
:10B6E000C3F80412D2F80034002BFBD000230A491F
:10B6F000C2F80435D1F80034002BFBD0BFF34F8FD4
:10B700000649074BCA6802F4E0621343CB60BFF3FB
:10B710004F8F00BFFDE700BF00E0014000ED00E0FB
:10B720000400FA0570B5161E07DD0C468D1914F8D5
:10B73000010BFCF765FDA542F9D1304670BD00BF95
:10B7400010B50C462046FCF729FD0528FAD001204B
:10B7500010BD00BF30B585B0047885888DF80040F5
:10B760008468ADF804508DF80640C568074A084B58
:10B770008DF80750D0E9040453F8213052F8211015
:10B78000CDE902046846984705B030BDF04100207D
:10B79000F84100202DE9F04F3B4E90F8008007461D
:10B7A0000C463A48497B46F8282040F8283081B0BA
:10B7B000154661B9364A002D4346214607F104007B
:10B7C00008BF2A4601B0BDE8F04F00F07DBF2368F6
:10B7D000304A4FF0A04603F5E07340F20C6146F8A2
:10B7E0002310636803F5E0734FF0010946F8231056
:10B7F000236809FA03F3C6F80835636809FA03F306
:10B80000C6F80835236803F5E07340F20D6146F889
:10B810002310636803F5E07342EA090A46F823102F
:10B820004FF48070D0474FF0000B6268D6F81035A7
:10B83000D340DB074FF4807022D4236809FA03F366
:10B84000C6F80C35D047236809FA03F30BF1010B56
:10B85000C6F808354FF48070D047BBF1090FE4D12A
:10B86000626801264FF0A04906FA02F2C9F80C25D9
:10B870004FF48070D04763689E40C9F8086599E727
:10B88000BBF1000FEDD195E7F8410020F041002019
:10B8900055B70200503F040010B568B90E4CA368BC
:10B8A000012262703BB1D3E900230020A2609847D7
:10B8B000A368002BF7D110BD0128FCD1064C2369E9
:10B8C000A070002BF7D0D3E9002301202261984714
:10B8D0002369002BF7D110BD0042002070B910B5CC
:10B8E000074CA368012262703BB1D3E9002300201A
:10B8F000A2609847A368002BF7D110BD704700BF26
:10B900000042002030B5012883B004D003281DD0A8
:10B91000B0B103B030BD224C00230DF107008DF80B
:10B920000730FCF7A7FC23784BB3E3689DF80700CA
:10B9300001330122E360A270FCF7C2FC03B030BD0A
:10B94000184B0122C3F8802003B030BD144C00F026
:10B950000BF900230DF107008DF80730FCF78AFC86
:10B96000E368013BE360E5682DB19DF80700FCF753
:10B97000A7FC03B030BD00F009F9A570F5E70A484F
:10B980006360A3602361E36000F0E2F80AF0FEFE6A
:10B9900010B101232370C8E700F0E6F8F9E700BF13
:10B9A0000042002000E100E099B8020030B585B007
:10B9B000047845688DF80040D0E90240064A074BFC
:10B9C000039053F82130019552F821108DF808406A
:10B9D0006846984705B030BD144200201842002048
:10B9E00030B585B0047845688DF80040D0E9024054
:10B9F000064A074B039053F82130019552F8211065
:10BA00008DF808406846984705B030BD14420020C4
:10BA100018420020F0B51A4B90F800C0194C1A4D8E
:10BA200091F81DE044F82C200746086945F82C00E1
:10BA300003F80CE00C4616460FCC89B06D460FC5D6
:10BA400094E80F0085E80F00CDF810C0BEF1000F9C
:10BA50000AD0002E0D4A694607F1040008BF32469D
:10BA600001F0AEFB09B0F0BD002E094A694607F1AE
:10BA70000C0008BF324601F009F909B0F0BD00BF63
:10BA8000785A00201842002014420020ADB902006C
:10BA9000E1B9020030B587B0057844688DF80450EC
:10BAA00002948568084A094B8DF80C50D0E9034090
:10BAB00053F821308DF8140052F82110049401A895
:10BAC000984707B030BD00BF1C420020284200202C
:10BAD0002DE9F04F1A4EDFF86CE0DFF86C90DFF8DC
